:200000000C94CA000C94E7000C94E7000C94E7000C94E7000C94E7000C94E7000C94E700C5
:200020000C94E7000C94E80F0C94E7000C94E7000C94E7000C94FC070C94E7000C94E7005C
:200040000C94E7000C94E7000C94E7000C94E7000C9480040C94DB040C94E7000C94E700D3
:200060000C94E7000C94E7000C94E7000C94E7000C9420050C947B050C94E7000D0A004D94
:200080006F746F722025643A000948414C4C5F464C49505F53544154453A2025640D0A002B
:2000A0000948414C4C5F52455345545F53544154453A202564004D6F746F722025643A007D
:2000C00048414C4C5F4F555400434C4B3100445431005357310048414C4C5F5245534554F6
:2000E0005F330048414C4C5F464C49505F330048414C4C5F454E5F33004D4F544F525F4557
:200100004E5F33004D4F544F525F41004D4F544F525F4200434C4B300044543000535730F0
:20012000004C45445F44415441004D4F544F525F454E5F320048414C4C5F454E5F32004871
:20014000414C4C5F464C49505F320048414C4C5F52455345545F32004D4F544F525F454E94
:200160005F310048414C4C5F454E5F310048414C4C5F464C49505F310048414C4C5F5245FA
:200180005345545F31003A00253032640054696D653A200011241FBECFEFD8E0DEBFCDBF24
:2001A00011E0A0E0B1E0E8E9F7E202C005900D92A632B107D9F728E0A6E2B1E001C01D92AC
:2001C000A73DB207E1F70E94AE0C0C94CA130C9400008F938FB78F93F8948091D3088F5F41
:2001E0008093D3088091D4088F4F8093D4088091D5088F4F8093D5088091D6088F4F8093BB
:20020000D6088F918FBF8F910895AF92BF92DF92EF92FF920F931F93CF93DF93FC0101900A
:200220000020E9F75C01AF0141505109CBE8D8E00F2EF1ECEF2EF12CF02D09EC10E068E9B4
:2002400078E06CC0D501DD905D010FB6F8940F922D853E850F900FBE8F89988D28173907EA
:20026000F9F0FB0182819381DC01DC92228133812F5F3F4F338322838085918528173907CF
:2002800021F486819781938382830FB6F8940F92808191810196918380830F900FBE2FC001
:2002A000EFEFF9EF3197F1F700C000000FB6F8940F922D853E850F900FBE8F89988D2817B9
:2002C000390761F1FB0182819381DC01DC92828193810196938382832085318582179307D7
:2002E00021F486819781938382830FB6F8940F92808191810196918380830F900FBE888187
:20030000823018F0843050F405C0F70180818062808304C0D8018C9180628C93A416B50658
:2003200009F090CFDF91CF911F910F91FF90EF90DF90BF90AF900895CF92DF92EF92FF92B9
:200340000F931F93CF93DF93CDB7DEB7FE013B96E190F190CE2EDF2E8091A808813041F4EA
:200360000BE818E00E943107F801858D8130D1F30BE818E081E0F801858F638D748D2C2D95
:200380003D2DA701818D928D0E94D610F801818D928D0E940501F801158EDF91CF911F91AC
:2003A0000F91FF90EF90DF90CF900895CF92DF92EF92FF920F931F93CF93DF93ECE7F0E075
:2003C0002EE730E00F2EFBE8CF2EF8E0DF2EF02D01EC10E069EC70E048E958E0F4900FB6A5
:2003E000F8940F92D6011D96CD91DC911E970F900FBE57968D919C915897C817D907F1F093
:20040000EA018A819B81DC01FC928A819B8101969B838A83E884F9848E159F0521F48E8122
:200420009F819B838A830FB6F8940F92888199810196998388830F900FBE34C08FEF99EF38
:200440000197F1F700C000000FB6F8940F92D6011D96CD91DC911E970F900FBE57968D91E9
:200460009C915897C817D90769F1EA018A819B81DC01FC928A819B8101969B838A83E88475
:20048000F9848E159F0521F48E819F819B838A830FB6F8940F928881998101969983888356
:2004A0000F900FBED6018C91823018F0843050F405C0D8018C9180628C9304C0DB018C91B1
:2004C00080628C933196E217F30709F087CFDF91CF911F910F91FF90EF90DF90CF90089579
:2004E000CF92DF92EF92FF920F931F93CF93DF93EC010E94C610009709F48CC0FE018C0F11
:200500009D1F0F2EFBE8CF2EF8E0DF2EF02D01EC10E069EC70E048E958E0F4900FB6F89440
:200520000F92D6011D96CD91DC911E970F900FBE57962D913C915897C217D30701F1EA01AD
:200540002A813B81D901FC922A813B812F5F3F4F3B832A83E884F9842E153F0521F42E81AA
:200560003F813B832A830FB6F8940F92288139812F5F3F4F398328830F900FBE36C0AFEF78
:20058000B9EF1197F1F700C000000FB6F8940F92D6011D96CD91DC911E970F900FBE57960E
:2005A0002D913C915897C217D30779F1EA012A813B81D901FC922A813B812F5F3F4F3B83A9
:2005C0002A83E884F9842E153F0521F42E813F813B832A830FB6F8940F92288139812F5F2C
:2005E0003F4F398328830F900FBED6012C91223018F0243050F405C0D8012C9120622C9378
:2006000004C0DB012C9120622C9331968E179F0709F083CFDF91CF911F910F91FF90EF90B1
:20062000DF90CF9008957F928F929F92AF92BF92CF92DF92EF92FF920F931F93CF93DF934E
:20064000CDB7DEB7A2970FB6F894DEBF0FBECDBF6C01762E49015A01C7010E944B060097F9
:20066000A9F0FE0132960FB6F8940F92118210829383828395838483978386838E0D9F1D4F
:2006800091878087F386E2860F900FBEC8010E944B060097A9F0FE013E960FB6F8940F923D
:2006A00011821082938382839583848397838683800F911F91878087138702870F900FBECB
:2006C000C8010E944B069B8F8A8F79821D8F0C8F1E8E8F8E98A2A9A2BAA20FB6F8940F923D
:2006E0008981813009F441C038F0823009F477C0833009F4ADC0E5C0D501C401805C9D4B12
:20070000A04FBF4F880F991FAA1FBB1F880F991FAA1FBB1FBC01CD01660F771F881F991F03
:2007200095018401000F111F221F331F000F111F221F331FA9019801220F331F441F551F5D
:20074000220F331F441F551F0E949510215031093093C5002093C4001092C00088E9809368
:20076000C1008EE08093C200ACC004EC10E0F80111821082209A80EC8093C20088E980938C
:20078000C100D501C401805C9D4BA04FBF4F880F991FAA1FBB1F880F991FAA1FBB1FBC019B
:2007A000CD01660F771F881F991F880C991CAA1CBB1C880C991CAA1CBB1CA5019401220FC9
:2007C000331F441F551F220F331F441F551F0E94951021503109F8013183208372C0D5014C
:2007E000C401805C9D4BA04FBF4F880F991FAA1FBB1F880F991FAA1FBB1FBC01CD01660F8F
:20080000771F881F991F95018401000F111F221F331F000F111F221F331FA9019801220FB0
:20082000331F441F551F220F331F441F551F0E949510215031093093CD002093CC00109292
:20084000C80088E98093C9008EE08093CA0039C00CEC10E0F80111821082549A80EC8093CC
:20086000CA0088E98093C900D501C401805C9D4BA04FBF4F880F991FAA1FBB1F880F991FC4
:20088000AA1FBB1FBC01CD01660F771F881F991F880C991CAA1CBB1C880C991CAA1CBB1CF4
:2008A000A5019401220F331F441F551F220F331F441F551F0E94951021503109F8013183AA
:2008C00020830F900FBE82E2FE013196D60101900D928A95E1F7C601A2960FB6F894DEBFF4
:2008E0000FBECDBFDF91CF911F910F91FF90EF90DF90CF90BF90AF909F908F907F9008951B
:200900001F920F920FB60F9211242F933F934F938F939F93AF93BF93EF93FF938091C000A7
:200920008C7171F08091C00088230CF036C0A6ECB0E0E0ECF0E08C9180818823E4F32DC0A0
:200940004091C6000FB6F8940F92EBE8F8E0218132810F900FBE8385948528173907E9F029
:20096000ECE8F8E0A281B3814C9382819381019693838283208531858217930721F4868122
:200980009781938382830FB6F8940F92808191810196918380830F900FBEFF91EF91BF91A5
:2009A000AF919F918F914F913F912F910F900FBE0F901F9018951F920F920FB60F921124E3
:2009C0002F938F939F93AF93BF93EF93FF930FB6F8940F9280919808909199080F900FBE88
:2009E000892B31F4E1ECF0E080818F7D80831CC0E8E9F8E0A481B5812D91B583A48380856F
:200A00009185A817B90721F486819781958384830FB6F8940F92808191810197918380833A
:200A20000F900FBE2093C600FF91EF91BF91AF919F918F912F910F900FBE0F901F901895BA
:200A40001F920F920FB60F9211242F933F934F938F939F93AF93BF93EF93FF938091C8005E
:200A60008C7171F08091C80088230CF036C0AEECB0E0E8ECF0E08C9180818823E4F32DC047
:200A80004091CE000FB6F8940F92EDEAF8E0218132810F900FBE8385948528173907E9F0DC
:200AA000EEEAF8E0A281B3814C9382819381019693838283208531858217930721F48681DD
:200AC0009781938382830FB6F8940F92808191810196918380830F900FBEFF91EF91BF9164
:200AE000AF919F918F914F913F912F910F900FBE0F901F9018951F920F920FB60F921124A2
:200B00002F938F939F93AF93BF93EF93FF930FB6F8940F928091BA089091BB080F900FBE02
:200B2000892B31F4E9ECF0E080818F7D80831CC0EAEBF8E0A481B5812D91B583A483808521
:200B40009185A817B90721F486819781958384830FB6F8940F9280819181019791838083F9
:200B60000F900FBE2093CE00FF91EF91BF91AF919F918F912F910F900FBE0F901F90189571
:200B8000FC010396928381832FEF3FEF34832383968385839087878310820895FC011186F8
:200BA00010860895CF93DF939C01FB01DC011196CD91DC911297D383C2838C819D819583BF
:200BC00084838C819D81DC0113967C936E9312977D836C8331872087F90180818F5F80836A
:200BE000DF91CF910895CF93DF93EB01488159814F3F2FEF520721F4FC01A781B0850DC0E4
:200C0000DC01139601C0DF011296ED91FC9113972081318142175307B0F71296ED91FC91F0
:200C20001397FB83EA83D583C483BD83AC831396DC93CE93129799878887FC0120812F5F94
:200C40002083DF91CF910895CF93DF93FC01A085B185C281D381848195819D838C83C48132
:200C6000D581828193819B838A8311968D919C911297E817F90731F48481958112969C932B
:200C80008E931197118610868C9181508C938C91DF91CF910895CF93DF93EC010E94EF096C
:200CA0008091260190912701892B31F48BE291E090932701809326012091280130912901B2
:200CC000C9018C0F9D1F8F3346E0940770F42817390770F4C0912601D0912701C20FD31F65
:200CE000909329018093280105C0C0E0D0E002C0C0E0D0E00E94B00ACE01DF91CF910895AC
:200D0000089531E1FC013083319722E220833197A3E3A083319760833197708331971082D4
:200D2000319760E8608331971082319762E06083319763E06083319764E06083319765E08F
:200D40006083319766E06083319767E06083319768E06083319769E06083319760E16083FA
:200D600031973083319732E13083319733E13083319734E13083319735E13083319736E1DB
:200D80003083319737E13083319738E13083319739E13083319730E23083319731E23083C9
:200DA00031972083319723E220833197408331975083319726E22083319727E22083319783
:200DC00028E22083319729E22083319720E32083319721E320838697089588EE93E090934D
:200DE000D0088093CF089093D2088093D108109289008CE7809388008BE080938100EFE63B
:200E0000F0E0808182608083A091CE07B091CF07CD91CDBFDD91DEBFFF91EF91DF91CF912A
:200E2000BF91AF919F918F917F916F915F914F913F912F911F910F91FF90EF90DF90CF9036
:200E4000BF90AF909F908F907F906F905F904F903F902F901F900F900FBE0F90089581E094
:200E600008950F920FB6F8940F921F9211242F923F924F925F926F927F928F929F92AF9253
:200E8000BF92CF92DF92EF92FF920F931F932F933F934F935F936F937F938F939F93AF93B7
:200EA000BF93CF93DF93EF93FF93A091CE07B091CF070DB60D920EB60D920E94810BA091B7
:200EC000CE07B091CF07CD91CDBFDD91DEBFFF91EF91DF91CF91BF91AF919F918F917F9161
:200EE0006F915F914F913F912F911F910F91FF90EF90DF90CF90BF90AF909F908F907F907B
:200F00006F905F904F903F902F901F900F900FBE0F9008950F920FB6F8940F921F921124A6
:200F20002F923F924F925F926F927F928F929F92AF92BF92CF92DF92EF92FF920F931F931F
:200F40002F933F934F935F936F937F938F939F93AF93BF93CF93DF93EF93FF93A091CE073F
:200F6000B091CF070DB60D920EB60D9213BE8091D1089091D20801979093D2088093D1085E
:200F8000892B51F40E94E9008091CF089091D0089093D2088093D1080E94F50981110E942F
:200FA000810BA091CE07B091CF07CD91CDBFDD91DEBFFF91EF91DF91CF91BF91AF919F91F3
:200FC0008F917F916F915F914F913F912F911F910F91FF90EF90DF90CF90BF90AF909F9098
:200FE0008F907F906F905F904F903F902F901F900F900FBE0F9008950E948A071895E091C0
:20100000A807F091A9078081811107C08FEF9FEF9093800780937F070895E091A807F09109
:20102000A9070580F681E02D0680F781E02D828193819093800780937F07089504E917E011
:201040000F2EFAEAEF2EF7E0FF2EF02D80919307882329F10FB6F8940F92D8011596ED91CD
:20106000FC911697C681D781CE0102960E94240680918907815080938907809193078150D3
:20108000809393070F900FBE8F89988D0E948006CE010E948006809193078111DBCFF701FC
:2010A0008081823098F20E943107D0CFFF920F931F93CF93DF93EC01F62E009187071091F0
:2010C00088078091CE079091CF0702960E942406CF3F8FEFD80769F4FF2059F06091CE074A
:2010E0007091CF076E5F7F4F8AE897E00E94D2052FC0C00FD11FE091CE07F091CF07D3837B
:20110000C283C017D10768F46091CE077091CF078091A6079091A7076E5F7F4F0E94F30520
:2011200017C06091CE077091CF078091A8079091A9076E5F7F4F0E94F30580917F079091BD
:201140008007C817D90720F4D0938007C0937F07DF91CF911F910F91FF9008954F925F9254
:201160006F927F928F929F92AF92BF92CF92DF92EF92FF920F93CF93DF934C016B015A010B
:201180002901CA010E944B063C01892B09F4ECC088E290E00E944B06EC01892BB1F0788EB8
:2011A0006F8AA50165EA70E0C3010E94CF1081E0A81AB1088F89988DA80EB91ED6018C9112
:2011C000898F8C91811105C018C0C3010E948006CBC0AE01465E5F4FF6013196B8E0CB0E04
:2011E000D11CCF012191DA012D93AD01DC018C91882319F0EC15FD05A1F718A2043008F008
:2012000003E00E8B09A31AA26E01B2E0CB0ED11CC6010E94CE05CE010C960E94CE05D987A1
:20122000C88784E090E0801B91099D878C87DB8BCA8B1BA21CA21DA21EA21FA2A201B40151
:20124000C5010E94810699838883E114F10419F0F701D183C0830FB6F8940F928091890763
:201260008F5F809389078091CE079091CF07892BD1F5D093CF07C093CE07809189078130D3
:2012800009F041C08AEA97E00E94C00583EB97E00E94C0058CEB97E00E94C00585EC97E079
:2012A0000E94C00583E797E00E94C0058AE697E00E94C0058DE997E00E94C00584E997E0F9
:2012C0000E94C0058AE897E00E94C00583E797E09093A9078093A8078AE697E09093A70729
:2012E0008093A60710C08091850781110CC0E091CE07F091CF0796898E89891720F0D0937D
:20130000CF07C093CE07809181078F5F809381078E8990918607981710F48093860790E025
:201320009C01220F331F220F331F220F331F820F931FB6018655984F0E94D2050F900FBEE6
:2013400080918507882361F0E091CE07F091CF0796898E89981730F40E94310781E005C04E
:2013600081E003C081E001C08FEFDF91CF910F91FF90EF90DF90CF90BF90AF909F908F9081
:201380007F906F905F904F900895EF92FF920F930F2EFDE7EF2EF7E0FF2EF02D00E020E0E1
:2013A00030E044E550E060E071E08EE198E00E94AE08813081F4F8948FEF9FEF909380078C
:2013C00080937F0781E08093850710928807109287070E94ED060F91FF90EF900895809122
:2013E0007C078F5F80937C070895CF92DF92EF92FF920F931F93CF93DF9380917C07811117
:2014000099C0E0908707F09088078FEFE81AF80AF0928807E0928707E114F104B9F480912B
:20142000A8079091A9072091A6073091A7073093A9072093A8079093A7078093A6078091E8
:2014400082078F5F809382070E94FF0780917F0790918007E816F90610F4D12C53C0D12C84
:20146000CC24C394E091A807F091A9078081811107C08FEF9FEF9093800780937F0742C029
:20148000E091A807F091A9070580F681E02DC681D7818A819B81E816F90628F49093800769
:2014A00080937F072FC08E010E5F1F4FC8010E9424068C899D89892B21F0CE010C960E9492
:2014C00024068E8990918607981710F48093860790E09C01220F331F220F331F220F331F34
:2014E000820F931FB8018655984F0E94D205E091CE07F091CF079E898689981708F4B2CFB6
:20150000DC2CB0CFE091CE07F091CF07868990E0FC01EE0FFF1FEE0FFF1FEE0FFF1F8E0F3D
:201520009F1FFC01E655F84F8081823048F0DD24D39406C0809184078F5F80938407D12C30
:2015400080918307882311F0DD24D3948D2DDF91CF911F910F91FF90EF90DF90CF90089589
:20156000DF92EF92FF920F931F93CF93DF930FB6F8940F9280917C07815080937C078091C2
:201580007C0781115FC080918907811133C05DC0D7011596ED91FC911697C681D781CE012B
:2015A0000C960E9424068E010E5F1F4FC8010E9424068E8990918607981710F480938607A6
:2015C00090E09C01220F331F220F331F220F331F820F931FB8018655984F0E94D205E091CD
:2015E000CE07F091CF079E898689981768F0D09283070AC0C0E0D0E00F2EFDE9EF2EF7E065
:20160000FF2EF02DDD24D394F70180818111C0CFCD2B11F00E94FF07C0918407CC2351F051
:20162000D1E00E94F5098111D0938307C150C9F71092840780918307882331F00E9431079B
:2016400081E003C080E001C080E00F900FBEDF91CF911F910F91FF90EF90DF9008950F939D
:201660001F93CF93DF938C01EB010E94EF094091870750918807F80120813181C9018C0F51
:201680009D1F4217530748F482179307E8F4918380834817590768F407C08217930780F0F4
:2016A0004817590768F010C060E0841B950B0E9456080E94B00A81110BC00E94310708C069
:2016C000F80191838083F0CFF80191838083F1CFDF91CF911F910F910895CF93DF93EC01ED
:2016E000892B51F00E94EF0960E0CE010E9456080E94B00A811102C00E943107DF91CF91F2
:20170000089580917C07882321F081E080938307089510928307E091CE07F091CF070788E9
:20172000F08DE02D80819181A281B381853A954AA54AB54AD9F484819581A681B781853A23
:20174000954AA54AB54A91F480859185A285B385853A954AA54AB54A49F484859585A685A6
:20176000B785853A954AA54AB54A61F06091CE077091CF078091CE079091CF07675E7F4F43
:201780000E940A0D20918607822F90E0FC01EE0FFF1FEE0FFF1FEE0FFF1FE80FF91FE65599
:2017A000F84F3081311111C02150822F90E0FC01EE0FFF1FEE0FFF1FEE0FFF1FE80FF91F2F
:2017C000E655F84F3081332379F3AC01440F551F440F551F440F551F480F591FDA01A6556D
:2017E000B84F1196ED91FC9112970280F381E02D1296FC93EE9311974355584FE417F507EE
:2018000029F442815381FD0152834183FC01EE0FFF1FEE0FFF1FEE0FFF1F8E0F9F1FFC01D7
:20182000E655F84F0180F281E02D868197819093CF078093CE07209386070895CF93DF9374
:2018400000D0CDB7DEB7FF24FA9400ED17E062E370E0CE0101960E942F0BE981FA819F01AE
:20186000AFEAB7E40E94B710E81BF90BF695E795AC014E0F5F1F529542954F7045275F707D
:2018800045279A01A1E8B0E80E94B710880F892F881F990B9195F89E9001F99E300D1124C7
:2018A000421B530B4F575048CA01880F991F56FF03C0919581959109F80181838083828322
:2018C0008483838385838783868380878287818783878587848786870FB6F8940F9265E063
:2018E00070E0C8010E94770C0F900FBEB0CF9B01220F331F620F731F209A25B12E7F35B17A
:2019000031604FB7F8946115710509F421C0FC01680F791F919188E035B997FF25B9990F3A
:20192000000000C025B9000000C000C000C000C000C000C000C000C000C000C000C000C009
:2019400000C000C000C08A9539F7E617F70711F74FBF85E88A95F1F700000895EF92FF92C4
:201960000F931F93CF93DF93CDB7DEB7A2970FB6F894DEBF0FBECDBF0E94E60E6894EE2402
:20198000E6F8F12C00E011E020E835E240E050E060E0CE0101960E94130382E2FE01319684
:2019A000ABE8B8E001900D928A95E1F70E94FD0FE12CF12C00E020E030E046E950E065E069
:2019C00071E08EE19CE00E94AE0820E030E046E950E06AE071E082E490E10E94AE0820E03A
:2019E00030E046E950E06EE071E089E19EE00E94AE080E94C50980E090E0A2960FB6F894D0
:201A0000DEBF0FBECDBFDF91CF911F910F91FF90EF900895CF93DF93EB0185E191E00E94CC
:201A200005010E94D601CE010E9405010E94D601DF91CF91089580E00E948D0E80E00E942B
:201A4000A50E80E00E94DB0E80E00E94930E80E00E94AB0E80E00E94D50E81E00E94990EFB
:201A600081E00E94B10E81E00E94CF0E0895CF93C82F0E941B0DC13091F018F0C230E9F0BF
:201A80002AC081E00E94930E81E090E00E946D0B0E94E10EC82F80E00E94930E1DC081E064
:201AA0000E94AB0E81E090E00E946D0B0E94E10EC82F80E00E94AB0E0FC081E00E94D50EE8
:201AC00081E090E00E946D0B0E94E10EC82F80E00E94D50E01C0C0E08C2FCF910895CF9333
:201AE000C82F0E941B0DC13091F018F0C230E9F02AC081E00E948D0E81E090E00E946D0B6D
:201B00000E94E10EC82F80E00E948D0E1DC081E00E94A50E81E090E00E946D0B0E94E10E91
:201B2000C82F80E00E94A50E0FC081E00E94DB0E81E090E00E946D0B0E94E10EC82F80E06B
:201B40000E94DB0E01C0C0E08C2FCF9108950F931F93CF93DF93C82F0E94370DD82F80E075
:201B60000E949F0E80E00E94B70E80E00E94C90ED13039F481E00E94C30E80E00E94BD0EA7
:201B800006C080E00E94C30E81E00E94BD0EC13041F018F0C23049F00BC081E00E949F0E0E
:201BA00007C081E00E94B70E03C081E00E94C90E0FE710E00EC01F92CF931F930F930E943C
:201BC0009C0184E690E00E946D0B0F900F900F900F908C2F0E94370DD81769F380E00E940A
:201BE0009F0E80E00E94B70E80E00E94C90EEC2FF0E0EE0FFF1FE052F84F81818F5F818325
:201C0000DF91CF911F910F910895CF93C82F03C08C2F0E94A70D8C2F0E946F0D8130C1F39C
:201C2000EC2FF0E0EE0FFF1FE052F84F1182CF910895C0E08C2F0E94A70D8C2F0E94050E74
:201C4000CF5FC330B9F7E0EEF7E084E1808384E0828388E084830F2EF6EBAF2EF0E0BF2E16
:201C6000F02D0F2EF0EACF2EF0E0DF2EF02D0F2EF9E8EF2EF0E0FF2EF02D0E948C10909185
:201C8000DF07891709F445C08093DF07C0E0D0E08C2F0E94370D182F8C2F0E946F0D082F7B
:201CA000DF93CF93BF92AF920E949C011F920F93DF92CF920E949C011F921F93FF92EF92A6
:201CC0000E949C012196EDB7FEB73C960FB6F894FEBF0FBEEDBFC330D105D1F61AC0E80109
:201CE00099818881891718F4892D0E94050E99818881981738F4892D0E94A70D998188817D
:201D00009817C8F393940E5F1F4FF3E09F12E7CFB4CF00EE17E0912CE2CF882311F0109AF1
:201D2000089510980895882311F0119A089511980895882311F0129A0895129808958823A0
:201D400011F0139A089513980895882311F0149A089514980895882311F0159A089515980B
:201D60000895882311F0169A089516980895882311F0179A089517980895882311F0409AB6
:201D8000089540980895882311F0419A089541980895882311F0429A089542980895882350
:201DA00011F0439A089543980895882311F0449A089544980895882311F0459A089545988B
:201DC000089589B1881F8827881F0895E6EEF7E089E791E0918380831282138281E084835E
:201DE000089A10982DE631E036832583178280878187099A119823E631E033872287148609
:201E000092E0958786870A9A129828E531E0308B2787118A23E0228B838B0B9A13984BE47A
:201E200051E0558B448B168A44E0478B808F0C9A14986FE371E0728F618F138E35E0348FBE
:201E4000858F0D9A159865E371E0778F668F10A266E061A382A30E9A1698AAE2B1E0B4A39B
:201E6000A3A315A257E056A387A30F9A1798A1E2B1E0B1A7A0A782A713A684A7209A289879
:201E8000ADE1B1E0B6A7A5A787A780AB11AA2198299AA9E1B1E0B3ABA2AB84AB95AB16AAF5
:201EA00022982A9AA4E1B1E0B0AFA7AB81AF22AF13AE23982B9AECE0F1E0F0933708E093C9
:201EC0003608909338081092390880933A08389A4098E4E0F1E0F0933C08E0933B0890934A
:201EE0003D0880933E0880933F08399A4198E9EFF0E0F0934108E09340089093420890937F
:201F00004308809344083A9A4298EFEEF0E0F0934608E093450890934708209348088093A3
:201F200049083B9A4398E3EEF0E0F0934B08E0934A0890934C0840934D0880934E083C9A86
:201F40004498E6EDF0E0F0935008E0934F089093510830935208809353083D9A459882ED33
:201F600090E0909373088093720820937408409375081092760854985C9A8EEC90E0909338
:201F80007808809377082093790830937A0810927B0855985D9A89EC90E090937D0880930D
:201FA0007C0820937E0860937F081092800856985E9A80EC90E09093820880938108209302
:201FC0008308509384081092850857985F9A08951F920F920FB60F9211248F93EF93FF9330
:201FE000E6E8F8E084818F5F8483FF91EF918F910F900FBE0F901F90189580E28093B6007F
:2020000082E08093B00095E09093B1008093700081E08093B3000895E6E8F8E0808361837E
:2020200042832383222364F44F5F01C0492F205891E0940F2223D4F3E6E8F8E04283238308
:20204000909188089C3340F09C536F5F9C33E0F7E6E8F8E061839283909187089C3340F01F
:202060009C538F5F9C33E0F7E6E8F8E08083918380918608883128F088518831E8F780932C
:2020800086080895C6E8D8E00F2EF8E8EF2EF1E0FF2EF02D8C818823E9F31A810FB6F894DA
:2020A0000F922C818B81280F2B831C824A81698188810E940C100F900FBE8A81181751F3DD
:2020C0008DE891E00E94700288811F928F93FF92EF920E949C0186E891E00E9470028981DC
:2020E0001F928F93FF92EF920E949C0186E891E00E9470028A811F928F93FF92EF920E9437
:202100009C010E94D6018DB79EB70C960FB6F8949EBF0FBE8DBFBECF60918608709187080B
:2021200080918808909189080895A1E21A2EAA1BBB1BFD010DC0AA1FBB1FEE1FFF1FA217F7
:20214000B307E407F50720F0A21BB30BE40BF50B661F771F881F991F1A9469F760957095E2
:20216000809590959B01AC01BD01CF010895A29FB001B39FC001A39F700D811D1124911D6C
:20218000B29F700D811D1124911D0895FC0105900020E9F7809590958E0F9F1F0895DC01B2
:2021A00001C06D9341505040E0F70895AEE0B0E0ECEDF0E10C94A1138C01FA018EE08C83A8
:2021C0001A83098377FF02C060E070E8CB0101979E838D83A901BF01CE0101960E940211EC
:2021E0004D815E8157FD0AC02F813885421753070CF49A01F801E20FF31F10822E96E4E043
:202200000C94BD13ABE0B0E0E8E0F1E10C9493136C017B018A01FC0117821682838181FF2D
:20222000CCC1CE0101963C01F6019381F70193FD859193FF81917F01882309F4BAC18532C7
:2022400039F493FD859193FF81917F01853229F4B60190E00E94F912E7CF912C212C312CC2
:20226000FFE1F315D8F08B3279F038F4803279F08332A1F4232D20611DC08D3261F0803386
:2022800069F4232D216016C0832D8260382EE32DE4603E2E2AC0F32DF8601DC037FC2DC023
:2022A00020ED280F2A3040F08E32B9F436FC81C1232D2064322E19C036FE06C08AE0989EC8
:2022C000200D1124922E11C0EAE02E9E200D1124222EF32DF0623F2E08C08C3621F4832D95
:2022E0008068382E02C0883641F4F70193FD859193FF81917F018111B3CF982F9F7D955439
:20230000933028F40C5F1F4F9FE399830DC0833631F0833771F0833509F059C021C0F80101
:20232000808189830E5F1F4F88248394912C530113C02801F2E04F0E511CF801A080B180FF
:2023400036FE03C0692D70E002C06FEF7FEFC5010E94EE124C018201F32DFF773F2E16C001
:20236000280122E0420E511CF801A080B18036FE03C0692D70E002C06FEF7FEFC5010E9458
:20238000E3124C01F32DF0683F2E820133FC1BC0822D90E088169906B0F4B60180E290E000
:2023A0000E94F9122A94F4CFF50137FC859137FE81915F01B60190E00E94F91221102A9446
:2023C00021E0821A91088114910471F7E8C0843611F0893641F5F80137FE07C06081718115
:2023E000828193810C5F1F4F08C060817181072E000C880B990B0E5F1F4FF32DFF763F2EFD
:2024000097FF09C090958095709561957F4F8F4F9F4FF0683F2E2AE030E0A3010E94351321
:20242000882E861845C0853731F4232D2F7EB22E2AE030E025C0932D997FB92E8F36C1F051
:2024400018F4883579F0B5C0803719F0883721F0B0C0E92FE061BE2EB4FE0DC0FB2DF46095
:20246000BF2E09C034FE0AC0292F2660B22E06C028E030E005C020E130E002C020E132E063
:20248000F801B7FE07C060817181828193810C5F1F4F06C06081718180E090E00E5F1F4FC0
:2024A000A3010E943513882E8618FB2DFF773F2E36FE0DC0232D2E7FA22E891458F434FE46
:2024C0000BC032FC09C0832D8E7EA82E05C0B82CA32C03C0B82C01C0B92CA4FE0FC0FE0173
:2024E000E80DF11D8081803321F49A2D997EA92E09C0A2FE06C0B394B39404C08A2D867825
:2025000009F0B394A3FC11C0A0FE06C0B21488F4280C922C9B180EC0B21460F4B60180E2BF
:2025200090E00E94F912B394F7CFB21418F42B1802C0982C212CA4FE10C0B60180E390E08D
:202540000E94F912A2FE17C0A1FC03C088E790E002C088E590E0B6010CC08A2D867859F0F8
:20256000A1FE02C08BE201C080E2A7FC8DE2B60190E00E94F912891438F4B60180E390E031
:202580000E94F9129A94F7CF8A94F301E80DF11D8081B60190E00E94F9128110F5CF222019
:2025A00009F442CEB60180E290E00E94F9122A94F6CFF6018681978102C08FEF9FEF2B96B0
:2025C000E2E10C94AF13FC010590615070400110D8F7809590958E0F9F1F0895FC01615023
:2025E000704001900110D8F7809590958E0F9F1F08950F931F93CF93DF93FB01238121FDA2
:2026000003C08FEF9FEF2CC022FF16C046815781248135814217530744F4A081B1819D0132
:202620002F5F3F4F318320838C93268137812F5F3F4F3783268314C08B01EC01FB0100845D
:20264000F185E02D0995892BE1F6D80116968D919C911797019617969C938E931697CE0140
:20266000DF91CF911F910F910895FA01AA27283051F1203181F1E8946F936E7F6E5F7F4F6E
:202680008F4F9F4FAF4FB1E03ED0B4E03CD0670F781F891F9A1FA11D680F791F8A1F911D9F
:2026A000A11D6A0F711D811D911DA11D20D009F468943F912AE0269F11243019305D3193F4
:2026C000DEF6CF010895462F4770405D4193B3E00FD0C9F7F6CF462F4F70405D4A3318F0CF
:2026E000495D31FD4052419302D0A9F7EACFB4E0A6959795879577956795BA95C9F70097B0
:202700006105710508959B01AC010A2E06945795479537952795BA95C9F7620F731F841F20
:20272000951FA01D08952F923F924F925F926F927F928F929F92AF92BF92CF92DF92EF92DE
:20274000FF920F931F93CF93DF93CDB7DEB7CA1BDB0B0FB6F894DEBF0FBECDBF09942A8846
:20276000398848885F846E847D848C849B84AA84B984C884DF80EE80FD800C811B81AA816E
:20278000B981CE0FD11D0FB6F894DEBF0FBECDBFED010895F894FFCF49444C45004C454415
:1E27A0007300525443004D6F746F727300535441434B204F564552464C4F5721000010
:00000001FF
